{
  "_format": "hh-sol-artifact-1",
  "contractName": "BeautyVerse",
  "sourceName": "contracts/SampleContract.sol",
  "abi": [
    {
      "inputs": [],
      "stateMutability": "nonpayable",
      "type": "constructor"
    },
    {
      "anonymous": false,
      "inputs": [
        {
          "indexed": true,
          "internalType": "address",
          "name": "owner",
          "type": "address"
        },
        {
          "indexed": true,
          "internalType": "address",
          "name": "approved",
          "type": "address"
        },
        {
          "indexed": true,
          "internalType": "uint256",
          "name": "tokenId",
          "type": "uint256"
        }
      ],
      "name": "Approval",
      "type": "event"
    },
    {
      "anonymous": false,
      "inputs": [
        {
          "indexed": true,
          "internalType": "address",
          "name": "owner",
          "type": "address"
        },
        {
          "indexed": true,
          "internalType": "address",
          "name": "operator",
          "type": "address"
        },
        {
          "indexed": false,
          "internalType": "bool",
          "name": "approved",
          "type": "bool"
        }
      ],
      "name": "ApprovalForAll",
      "type": "event"
    },
    {
      "anonymous": false,
      "inputs": [
        {
          "indexed": true,
          "internalType": "address",
          "name": "previousOwner",
          "type": "address"
        },
        {
          "indexed": true,
          "internalType": "address",
          "name": "newOwner",
          "type": "address"
        }
      ],
      "name": "OwnershipTransferred",
      "type": "event"
    },
    {
      "anonymous": false,
      "inputs": [
        {
          "indexed": true,
          "internalType": "address",
          "name": "from",
          "type": "address"
        },
        {
          "indexed": true,
          "internalType": "address",
          "name": "to",
          "type": "address"
        },
        {
          "indexed": true,
          "internalType": "uint256",
          "name": "tokenId",
          "type": "uint256"
        }
      ],
      "name": "Transfer",
      "type": "event"
    },
    {
      "inputs": [
        {
          "internalType": "address",
          "name": "to",
          "type": "address"
        },
        {
          "internalType": "uint256",
          "name": "tokenId",
          "type": "uint256"
        }
      ],
      "name": "approve",
      "outputs": [],
      "stateMutability": "nonpayable",
      "type": "function"
    },
    {
      "inputs": [
        {
          "internalType": "address",
          "name": "owner",
          "type": "address"
        }
      ],
      "name": "balanceOf",
      "outputs": [
        {
          "internalType": "uint256",
          "name": "",
          "type": "uint256"
        }
      ],
      "stateMutability": "view",
      "type": "function"
    },
    {
      "inputs": [
        {
          "internalType": "uint256",
          "name": "tokenId",
          "type": "uint256"
        }
      ],
      "name": "claim",
      "outputs": [],
      "stateMutability": "nonpayable",
      "type": "function"
    },
    {
      "inputs": [
        {
          "internalType": "uint256",
          "name": "tokenId",
          "type": "uint256"
        }
      ],
      "name": "getApproved",
      "outputs": [
        {
          "internalType": "address",
          "name": "",
          "type": "address"
        }
      ],
      "stateMutability": "view",
      "type": "function"
    },
    {
      "inputs": [
        {
          "internalType": "uint256",
          "name": "tokenId",
          "type": "uint256"
        }
      ],
      "name": "getBackground",
      "outputs": [
        {
          "internalType": "string",
          "name": "",
          "type": "string"
        }
      ],
      "stateMutability": "view",
      "type": "function"
    },
    {
      "inputs": [
        {
          "internalType": "uint256",
          "name": "tokenId",
          "type": "uint256"
        }
      ],
      "name": "getClothe",
      "outputs": [
        {
          "internalType": "string",
          "name": "",
          "type": "string"
        }
      ],
      "stateMutability": "view",
      "type": "function"
    },
    {
      "inputs": [
        {
          "internalType": "uint256",
          "name": "tokenId",
          "type": "uint256"
        }
      ],
      "name": "getCreator",
      "outputs": [
        {
          "internalType": "string",
          "name": "",
          "type": "string"
        }
      ],
      "stateMutability": "view",
      "type": "function"
    },
    {
      "inputs": [
        {
          "internalType": "uint256",
          "name": "tokenId",
          "type": "uint256"
        }
      ],
      "name": "getEarRings",
      "outputs": [
        {
          "internalType": "string",
          "name": "",
          "type": "string"
        }
      ],
      "stateMutability": "view",
      "type": "function"
    },
    {
      "inputs": [
        {
          "internalType": "uint256",
          "name": "tokenId",
          "type": "uint256"
        }
      ],
      "name": "getEyes",
      "outputs": [
        {
          "internalType": "string",
          "name": "",
          "type": "string"
        }
      ],
      "stateMutability": "view",
      "type": "function"
    },
    {
      "inputs": [
        {
          "internalType": "uint256",
          "name": "tokenId",
          "type": "uint256"
        }
      ],
      "name": "getHairstyle",
      "outputs": [
        {
          "internalType": "string",
          "name": "",
          "type": "string"
        }
      ],
      "stateMutability": "view",
      "type": "function"
    },
    {
      "inputs": [
        {
          "internalType": "uint256",
          "name": "tokenId",
          "type": "uint256"
        }
      ],
      "name": "getLip",
      "outputs": [
        {
          "internalType": "string",
          "name": "",
          "type": "string"
        }
      ],
      "stateMutability": "view",
      "type": "function"
    },
    {
      "inputs": [
        {
          "internalType": "uint256",
          "name": "tokenId",
          "type": "uint256"
        }
      ],
      "name": "getNeck",
      "outputs": [
        {
          "internalType": "string",
          "name": "",
          "type": "string"
        }
      ],
      "stateMutability": "view",
      "type": "function"
    },
    {
      "inputs": [
        {
          "internalType": "uint256",
          "name": "tokenId",
          "type": "uint256"
        }
      ],
      "name": "getSkintone",
      "outputs": [
        {
          "internalType": "string",
          "name": "",
          "type": "string"
        }
      ],
      "stateMutability": "view",
      "type": "function"
    },
    {
      "inputs": [
        {
          "internalType": "address",
          "name": "owner",
          "type": "address"
        },
        {
          "internalType": "address",
          "name": "operator",
          "type": "address"
        }
      ],
      "name": "isApprovedForAll",
      "outputs": [
        {
          "internalType": "bool",
          "name": "",
          "type": "bool"
        }
      ],
      "stateMutability": "view",
      "type": "function"
    },
    {
      "inputs": [],
      "name": "name",
      "outputs": [
        {
          "internalType": "string",
          "name": "",
          "type": "string"
        }
      ],
      "stateMutability": "view",
      "type": "function"
    },
    {
      "inputs": [],
      "name": "owner",
      "outputs": [
        {
          "internalType": "address",
          "name": "",
          "type": "address"
        }
      ],
      "stateMutability": "view",
      "type": "function"
    },
    {
      "inputs": [
        {
          "internalType": "uint256",
          "name": "tokenId",
          "type": "uint256"
        }
      ],
      "name": "ownerClaim",
      "outputs": [],
      "stateMutability": "nonpayable",
      "type": "function"
    },
    {
      "inputs": [
        {
          "internalType": "uint256",
          "name": "tokenId",
          "type": "uint256"
        }
      ],
      "name": "ownerOf",
      "outputs": [
        {
          "internalType": "address",
          "name": "",
          "type": "address"
        }
      ],
      "stateMutability": "view",
      "type": "function"
    },
    {
      "inputs": [],
      "name": "renounceOwnership",
      "outputs": [],
      "stateMutability": "nonpayable",
      "type": "function"
    },
    {
      "inputs": [
        {
          "internalType": "address",
          "name": "from",
          "type": "address"
        },
        {
          "internalType": "address",
          "name": "to",
          "type": "address"
        },
        {
          "internalType": "uint256",
          "name": "tokenId",
          "type": "uint256"
        }
      ],
      "name": "safeTransferFrom",
      "outputs": [],
      "stateMutability": "nonpayable",
      "type": "function"
    },
    {
      "inputs": [
        {
          "internalType": "address",
          "name": "from",
          "type": "address"
        },
        {
          "internalType": "address",
          "name": "to",
          "type": "address"
        },
        {
          "internalType": "uint256",
          "name": "tokenId",
          "type": "uint256"
        },
        {
          "internalType": "bytes",
          "name": "_data",
          "type": "bytes"
        }
      ],
      "name": "safeTransferFrom",
      "outputs": [],
      "stateMutability": "nonpayable",
      "type": "function"
    },
    {
      "inputs": [
        {
          "internalType": "address",
          "name": "operator",
          "type": "address"
        },
        {
          "internalType": "bool",
          "name": "approved",
          "type": "bool"
        }
      ],
      "name": "setApprovalForAll",
      "outputs": [],
      "stateMutability": "nonpayable",
      "type": "function"
    },
    {
      "inputs": [
        {
          "internalType": "bytes4",
          "name": "interfaceId",
          "type": "bytes4"
        }
      ],
      "name": "supportsInterface",
      "outputs": [
        {
          "internalType": "bool",
          "name": "",
          "type": "bool"
        }
      ],
      "stateMutability": "view",
      "type": "function"
    },
    {
      "inputs": [],
      "name": "symbol",
      "outputs": [
        {
          "internalType": "string",
          "name": "",
          "type": "string"
        }
      ],
      "stateMutability": "view",
      "type": "function"
    },
    {
      "inputs": [
        {
          "internalType": "uint256",
          "name": "index",
          "type": "uint256"
        }
      ],
      "name": "tokenByIndex",
      "outputs": [
        {
          "internalType": "uint256",
          "name": "",
          "type": "uint256"
        }
      ],
      "stateMutability": "view",
      "type": "function"
    },
    {
      "inputs": [
        {
          "internalType": "address",
          "name": "owner",
          "type": "address"
        },
        {
          "internalType": "uint256",
          "name": "index",
          "type": "uint256"
        }
      ],
      "name": "tokenOfOwnerByIndex",
      "outputs": [
        {
          "internalType": "uint256",
          "name": "",
          "type": "uint256"
        }
      ],
      "stateMutability": "view",
      "type": "function"
    },
    {
      "inputs": [
        {
          "internalType": "uint256",
          "name": "tokenId",
          "type": "uint256"
        }
      ],
      "name": "tokenURI",
      "outputs": [
        {
          "internalType": "string",
          "name": "",
          "type": "string"
        }
      ],
      "stateMutability": "view",
      "type": "function"
    },
    {
      "inputs": [
        {
          "internalType": "address",
          "name": "_owner",
          "type": "address"
        }
      ],
      "name": "tokensOfOwner",
      "outputs": [
        {
          "internalType": "uint256[]",
          "name": "ownerTokens",
          "type": "uint256[]"
        }
      ],
      "stateMutability": "view",
      "type": "function"
    },
    {
      "inputs": [],
      "name": "totalSupply",
      "outputs": [
        {
          "internalType": "uint256",
          "name": "",
          "type": "uint256"
        }
      ],
      "stateMutability": "view",
      "type": "function"
    },
    {
      "inputs": [
        {
          "internalType": "address",
          "name": "from",
          "type": "address"
        },
        {
          "internalType": "address",
          "name": "to",
          "type": "address"
        },
        {
          "internalType": "uint256",
          "name": "tokenId",
          "type": "uint256"
        }
      ],
      "name": "transferFrom",
      "outputs": [],
      "stateMutability": "nonpayable",
      "type": "function"
    },
    {
      "inputs": [
        {
          "internalType": "address",
          "name": "newOwner",
          "type": "address"
        }
      ],
      "name": "transferOwnership",
      "outputs": [],
      "stateMutability": "nonpayable",
      "type": "function"
    }
  ],
  "bytecode": "0x608060405260405180608001604052806040518060400160405280600d81526020017f4a616d657320436861726c65730000000000000000000000000000000000000081525081526020016040518060400160405280600b81526020017f506174204d63477261746800000000000000000000000000000000000000000081525081526020016040518060400160405280600b81526020017f426f6262692042726f776e00000000000000000000000000000000000000000081525081526020016040518060400160405280600d81526020017f477563636920576573746d616e00000000000000000000000000000000000000815250815250600c9060046200010b92919062000a80565b5060405180606001604052806040518060400160405280600b81526020017f6c6967687479656c6c6f7700000000000000000000000000000000000000000081525081526020016040518060400160405280600981526020017f6c6967687470696e6b000000000000000000000000000000000000000000000081525081526020016040518060400160405280600981526020017f6c69676874626c75650000000000000000000000000000000000000000000000815250815250600d906003620001d892919062000ae7565b5060405180608001604052806040518060400160405280600b81526020017f537472697065642074656500000000000000000000000000000000000000000081525081526020016040518060400160405280600981526020017f53696c6b20526f6265000000000000000000000000000000000000000000000081525081526020016040518060400160405280600981526020017f506f6c6b6120446f74000000000000000000000000000000000000000000000081525081526020016040518060400160405280600581526020017f4472657373000000000000000000000000000000000000000000000000000000815250815250600e906004620002e092919062000a80565b5060405180608001604052806040518060400160405280600d81526020017f436c617373696320486f6f70730000000000000000000000000000000000000081525081526020016040518060400160405280600b81526020017f506561726c2044726f707300000000000000000000000000000000000000000081525081526020016040518060400160405280600681526020017f5370696b6573000000000000000000000000000000000000000000000000000081525081526020016040518060400160405280600781526020017f44616e676c657300000000000000000000000000000000000000000000000000815250815250600f906004620003e892919062000a80565b5060405180608001604052806040518060400160405280600581526020017f426c61636b00000000000000000000000000000000000000000000000000000081525081526020016040518060400160405280600581526020017f42726f776e00000000000000000000000000000000000000000000000000000081525081526020016040518060400160405280600481526020017f426c75650000000000000000000000000000000000000000000000000000000081525081526020016040518060400160405280600581526020017f477265656e0000000000000000000000000000000000000000000000000000008152508152506010906004620004f092919062000a80565b5060405180608001604052806040518060400160405280600381526020017f42756e000000000000000000000000000000000000000000000000000000000081525081526020016040518060400160405280600881526020017f506f6e797461696c00000000000000000000000000000000000000000000000081525081526020016040518060400160405280600581526020017f4375726c7900000000000000000000000000000000000000000000000000000081525081526020016040518060400160405280600481526020017f4c6f6e67000000000000000000000000000000000000000000000000000000008152508152506011906004620005f892919062000a80565b5060405180608001604052806040518060400160405280600381526020017f526564000000000000000000000000000000000000000000000000000000000081525081526020016040518060400160405280600881526020017f42757267756e647900000000000000000000000000000000000000000000000081525081526020016040518060400160405280600a81526020017f50617274792050696e6b0000000000000000000000000000000000000000000081525081526020016040518060400160405280600581526020017f42726f776e00000000000000000000000000000000000000000000000000000081525081525060129060046200070092919062000a80565b5060405180606001604052806040518060400160405280600881526020017f4e65636b6c61636500000000000000000000000000000000000000000000000081525081526020016040518060400160405280600681526020017f416d756c6574000000000000000000000000000000000000000000000000000081525081526020016040518060400160405280600781526020017f50656e64616e74000000000000000000000000000000000000000000000000008152508152506013906003620007cd92919062000ae7565b5060405180608001604052806040518060400160405280600b81526020017f5761726d2059656c6c6f7700000000000000000000000000000000000000000081525081526020016040518060400160405280600681526020017f476f6c64656e000000000000000000000000000000000000000000000000000081525081526020016040518060400160405280600881526020017f457370726573736f00000000000000000000000000000000000000000000000081525081526020016040518060400160405280600981526020017f506f7263656c61696e00000000000000000000000000000000000000000000008152508152506014906004620008d592919062000a80565b50348015620008e357600080fd5b506040518060400160405280600b81526020017f42656175747956657273650000000000000000000000000000000000000000008152506040518060400160405280600b81526020017f426561757479566572736500000000000000000000000000000000000000000081525081600090805190602001906200096892919062000b4e565b5080600190805190602001906200098192919062000b4e565b5050506001600a81905550620009ac620009a0620009b260201b60201c565b620009ba60201b60201c565b62000cd1565b600033905090565b6000600b60009054906101000a900473ffffffffffffffffffffffffffffffffffffffff16905081600b60006101000a81548173ffffffffffffffffffffffffffffffffffffffff021916908373ffffffffffffffffffffffffffffffffffffffff1602179055508173ffffffffffffffffffffffffffffffffffffffff168173ffffffffffffffffffffffffffffffffffffffff167f8be0079c531659141344cd1fd0a4f28419497f9722a3daafe3b4186f6b6457e060405160405180910390a35050565b82805482825590600052602060002090810192821562000ad4579160200282015b8281111562000ad357825182908051906020019062000ac292919062000b4e565b509160200191906001019062000aa1565b5b50905062000ae3919062000bdf565b5090565b82805482825590600052602060002090810192821562000b3b579160200282015b8281111562000b3a57825182908051906020019062000b2992919062000b4e565b509160200191906001019062000b08565b5b50905062000b4a919062000bdf565b5090565b82805462000b5c9062000c6c565b90600052602060002090601f01602090048101928262000b80576000855562000bcc565b82601f1062000b9b57805160ff191683800117855562000bcc565b8280016001018555821562000bcc579182015b8281111562000bcb57825182559160200191906001019062000bae565b5b50905062000bdb919062000c07565b5090565b5b8082111562000c03576000818162000bf9919062000c26565b5060010162000be0565b5090565b5b8082111562000c2257600081600090555060010162000c08565b5090565b50805462000c349062000c6c565b6000825580601f1062000c48575062000c69565b601f01602090049060005260206000209081019062000c68919062000c07565b5b50565b6000600282049050600182168062000c8557607f821691505b6020821081141562000c9c5762000c9b62000ca2565b5b50919050565b7f4e487b7100000000000000000000000000000000000000000000000000000000600052602260045260246000fd5b61558a8062000ce16000396000f3fe608060405234801561001057600080fd5b50600436106101e55760003560e01c8063715018a61161010f578063c4d30bfa116100a2578063e8d887d311610071578063e8d887d314610600578063e985e9c514610630578063ea191d0614610660578063f2fde38b14610690576101e5565b8063c4d30bfa14610540578063c87b56dd14610570578063cf869a25146105a0578063d48e638a146105d0576101e5565b8063a0bf9c92116100de578063a0bf9c92146104a8578063a22cb465146104d8578063b88d4fde146104f4578063c29c0ffd14610510576101e5565b8063715018a6146104325780638462151c1461043c5780638da5cb5b1461046c57806395d89b411461048a576101e5565b80632f745c59116101875780634f6ccce7116101565780634f6ccce7146103725780636352211e146103a257806367209aa8146103d257806370a0823114610402576101e5565b80632f745c59146102ee578063379607f51461031e57806342842e0e1461033a578063434f48c414610356576101e5565b8063081812fc116101c3578063081812fc14610268578063095ea7b31461029857806318160ddd146102b457806323b872dd146102d2576101e5565b806301ffc9a7146101ea578063043d5bc91461021a57806306fdde031461024a575b600080fd5b61020460048036038101906101ff9190613fb4565b6106ac565b6040516102119190614b74565b60405180910390f35b610234600480360381019061022f9190614006565b610726565b6040516102419190614b8f565b60405180910390f35b610252610840565b60405161025f9190614b8f565b60405180910390f35b610282600480360381019061027d9190614006565b6108d2565b60405161028f9190614aeb565b60405180910390f35b6102b260048036038101906102ad9190613f78565b610957565b005b6102bc610a6f565b6040516102c99190614e11565b60405180910390f35b6102ec60048036038101906102e79190613e72565b610a7c565b005b61030860048036038101906103039190613f78565b610adc565b6040516103159190614e11565b60405180910390f35b61033860048036038101906103339190614006565b610b81565b005b610354600480360381019061034f9190613e72565b610c3b565b005b610370600480360381019061036b9190614006565b610c5b565b005b61038c60048036038101906103879190614006565b610d92565b6040516103999190614e11565b60405180910390f35b6103bc60048036038101906103b79190614006565b610e29565b6040516103c99190614aeb565b60405180910390f35b6103ec60048036038101906103e79190614006565b610edb565b6040516103f99190614b8f565b60405180910390f35b61041c60048036038101906104179190613e0d565b610ff5565b6040516104299190614e11565b60405180910390f35b61043a6110ad565b005b61045660048036038101906104519190613e0d565b611135565b6040516104639190614b52565b60405180910390f35b610474611305565b6040516104819190614aeb565b60405180910390f35b61049261132f565b60405161049f9190614b8f565b60405180910390f35b6104c260048036038101906104bd9190614006565b6113c1565b6040516104cf9190614b8f565b60405180910390f35b6104f260048036038101906104ed9190613f3c565b6114db565b005b61050e60048036038101906105099190613ec1565b61165c565b005b61052a60048036038101906105259190614006565b6116be565b6040516105379190614b8f565b60405180910390f35b61055a60048036038101906105559190614006565b6117d8565b6040516105679190614b8f565b60405180910390f35b61058a60048036038101906105859190614006565b6118f2565b6040516105979190614b8f565b60405180910390f35b6105ba60048036038101906105b59190614006565b612396565b6040516105c79190614b8f565b60405180910390f35b6105ea60048036038101906105e59190614006565b6124b0565b6040516105f79190614b8f565b60405180910390f35b61061a60048036038101906106159190614006565b6125ca565b6040516106279190614b8f565b60405180910390f35b61064a60048036038101906106459190613e36565b6126e4565b6040516106579190614b74565b60405180910390f35b61067a60048036038101906106759190614006565b612778565b6040516106879190614b8f565b60405180910390f35b6106aa60048036038101906106a59190613e0d565b612892565b005b60007f780e9d63000000000000000000000000000000000000000000000000000000007bffffffffffffffffffffffffffffffffffffffffffffffffffffffff1916827bffffffffffffffffffffffffffffffffffffffffffffffffffffffff1916148061071f575061071e8261298a565b5b9050919050565b6060610839826040518060400160405280600481526020017f4c495053000000000000000000000000000000000000000000000000000000008152506012805480602002602001604051908101604052809291908181526020016000905b828210156108305783829060005260206000200180546107a3906150d4565b80601f01602080910402602001604051908101604052809291908181526020018280546107cf906150d4565b801561081c5780601f106107f15761010080835404028352916020019161081c565b820191906000526020600020905b8154815290600101906020018083116107ff57829003601f168201915b505050505081526020019060010190610784565b50505050612a6c565b9050919050565b60606000805461084f906150d4565b80601f016020809104026020016040519081016040528092919081815260200182805461087b906150d4565b80156108c85780601f1061089d576101008083540402835291602001916108c8565b820191906000526020600020905b8154815290600101906020018083116108ab57829003601f168201915b5050505050905090565b60006108dd82612b01565b61091c576040517f08c379a000000000000000000000000000000000000000000000000000000000815260040161091390614d11565b60405180910390fd5b6004600083815260200190815260200160002060009054906101000a900473ffffffffffffffffffffffffffffffffffffffff169050919050565b600061096282610e29565b90508073ffffffffffffffffffffffffffffffffffffffff168373ffffffffffffffffffffffffffffffffffffffff1614156109d3576040517f08c379a00000000000000000000000000000000000000000000000000000000081526004016109ca90614d91565b60405180910390fd5b8073ffffffffffffffffffffffffffffffffffffffff166109f2612b6d565b73ffffffffffffffffffffffffffffffffffffffff161480610a215750610a2081610a1b612b6d565b6126e4565b5b610a60576040517f08c379a0000000000000000000000000000000000000000000000000000000008152600401610a5790614c91565b60405180910390fd5b610a6a8383612b75565b505050565b6000600880549050905090565b610a8d610a87612b6d565b82612c2e565b610acc576040517f08c379a0000000000000000000000000000000000000000000000000000000008152600401610ac390614db1565b60405180910390fd5b610ad7838383612d0c565b505050565b6000610ae783610ff5565b8210610b28576040517f08c379a0000000000000000000000000000000000000000000000000000000008152600401610b1f90614bb1565b60405180910390fd5b600660008473ffffffffffffffffffffffffffffffffffffffff1673ffffffffffffffffffffffffffffffffffffffff168152602001908152602001600020600083815260200190815260200160002054905092915050565b6002600a541415610bc7576040517f08c379a0000000000000000000000000000000000000000000000000000000008152600401610bbe90614df1565b60405180910390fd5b6002600a81905550600081118015610be05750611e6281105b610c1f576040517f08c379a0000000000000000000000000000000000000000000000000000000008152600401610c1690614d51565b60405180910390fd5b610c30610c2a612b6d565b82612f68565b6001600a8190555050565b610c568383836040518060200160405280600081525061165c565b505050565b6002600a541415610ca1576040517f08c379a0000000000000000000000000000000000000000000000000000000008152600401610c9890614df1565b60405180910390fd5b6002600a81905550610cb1612b6d565b73ffffffffffffffffffffffffffffffffffffffff16610ccf611305565b73ffffffffffffffffffffffffffffffffffffffff1614610d25576040517f08c379a0000000000000000000000000000000000000000000000000000000008152600401610d1c90614d31565b60405180910390fd5b611e6181118015610d375750611f4181105b610d76576040517f08c379a0000000000000000000000000000000000000000000000000000000008152600401610d6d90614d51565b60405180910390fd5b610d87610d81611305565b82612f68565b6001600a8190555050565b6000610d9c610a6f565b8210610ddd576040517f08c379a0000000000000000000000000000000000000000000000000000000008152600401610dd490614dd1565b60405180910390fd5b60088281548110610e17577f4e487b7100000000000000000000000000000000000000000000000000000000600052603260045260246000fd5b90600052602060002001549050919050565b6000806002600084815260200190815260200160002060009054906101000a900473ffffffffffffffffffffffffffffffffffffffff169050600073ffffffffffffffffffffffffffffffffffffffff168173ffffffffffffffffffffffffffffffffffffffff161415610ed2576040517f08c379a0000000000000000000000000000000000000000000000000000000008152600401610ec990614cd1565b60405180910390fd5b80915050919050565b6060610fee826040518060400160405280600481526020017f4e45434b000000000000000000000000000000000000000000000000000000008152506013805480602002602001604051908101604052809291908181526020016000905b82821015610fe5578382906000526020600020018054610f58906150d4565b80601f0160208091040260200160405190810160405280929190818152602001828054610f84906150d4565b8015610fd15780601f10610fa657610100808354040283529160200191610fd1565b820191906000526020600020905b815481529060010190602001808311610fb457829003601f168201915b505050505081526020019060010190610f39565b50505050612a6c565b9050919050565b60008073ffffffffffffffffffffffffffffffffffffffff168273ffffffffffffffffffffffffffffffffffffffff161415611066576040517f08c379a000000000000000000000000000000000000000000000000000000000815260040161105d90614cb1565b60405180910390fd5b600360008373ffffffffffffffffffffffffffffffffffffffff1673ffffffffffffffffffffffffffffffffffffffff168152602001908152602001600020549050919050565b6110b5612b6d565b73ffffffffffffffffffffffffffffffffffffffff166110d3611305565b73ffffffffffffffffffffffffffffffffffffffff1614611129576040517f08c379a000000000000000000000000000000000000000000000000000000000815260040161112090614d31565b60405180910390fd5b6111336000612f86565b565b6060600061114283610ff5565b905060008114156111c557600067ffffffffffffffff81111561118e577f4e487b7100000000000000000000000000000000000000000000000000000000600052604160045260246000fd5b6040519080825280602002602001820160405280156111bc5781602001602082028036833780820191505090505b50915050611300565b60008167ffffffffffffffff811115611207577f4e487b7100000000000000000000000000000000000000000000000000000000600052604160045260246000fd5b6040519080825280602002602001820160405280156112355781602001602082028036833780820191505090505b5090506000611242610a6f565b9050600080600190505b8281116112f7578673ffffffffffffffffffffffffffffffffffffffff1661127382610e29565b73ffffffffffffffffffffffffffffffffffffffff1614156112e457808483815181106112c9577f4e487b7100000000000000000000000000000000000000000000000000000000600052603260045260246000fd5b60200260200101818152505081806112e090615106565b9250505b80806112ef90615106565b91505061124c565b83955050505050505b919050565b6000600b60009054906101000a900473ffffffffffffffffffffffffffffffffffffffff16905090565b60606001805461133e906150d4565b80601f016020809104026020016040519081016040528092919081815260200182805461136a906150d4565b80156113b75780601f1061138c576101008083540402835291602001916113b7565b820191906000526020600020905b81548152906001019060200180831161139a57829003601f168201915b5050505050905090565b60606114d4826040518060400160405280600481526020017f48414952000000000000000000000000000000000000000000000000000000008152506011805480602002602001604051908101604052809291908181526020016000905b828210156114cb57838290600052602060002001805461143e906150d4565b80601f016020809104026020016040519081016040528092919081815260200182805461146a906150d4565b80156114b75780601f1061148c576101008083540402835291602001916114b7565b820191906000526020600020905b81548152906001019060200180831161149a57829003601f168201915b50505050508152602001906001019061141f565b50505050612a6c565b9050919050565b6114e3612b6d565b73ffffffffffffffffffffffffffffffffffffffff168273ffffffffffffffffffffffffffffffffffffffff161415611551576040517f08c379a000000000000000000000000000000000000000000000000000000000815260040161154890614c51565b60405180910390fd5b806005600061155e612b6d565b73ffffffffffffffffffffffffffffffffffffffff1673ffffffffffffffffffffffffffffffffffffffff16815260200190815260200160002060008473ffffffffffffffffffffffffffffffffffffffff1673ffffffffffffffffffffffffffffffffffffffff16815260200190815260200160002060006101000a81548160ff0219169083151502179055508173ffffffffffffffffffffffffffffffffffffffff1661160b612b6d565b73ffffffffffffffffffffffffffffffffffffffff167f17307eab39ab6107e8899845ad3d59bd9653f200f220920489ca2b5937696c31836040516116509190614b74565b60405180910390a35050565b61166d611667612b6d565b83612c2e565b6116ac576040517f08c379a00000000000000000000000000000000000000000000000000000000081526004016116a390614db1565b60405180910390fd5b6116b88484848461304c565b50505050565b60606117d1826040518060400160405280600881526020017f534b494e544f4e450000000000000000000000000000000000000000000000008152506014805480602002602001604051908101604052809291908181526020016000905b828210156117c857838290600052602060002001805461173b906150d4565b80601f0160208091040260200160405190810160405280929190818152602001828054611767906150d4565b80156117b45780601f10611789576101008083540402835291602001916117b4565b820191906000526020600020905b81548152906001019060200180831161179757829003601f168201915b50505050508152602001906001019061171c565b50505050612a6c565b9050919050565b60606118eb826040518060400160405280600381526020017f45594500000000000000000000000000000000000000000000000000000000008152506010805480602002602001604051908101604052809291908181526020016000905b828210156118e2578382906000526020600020018054611855906150d4565b80601f0160208091040260200160405190810160405280929190818152602001828054611881906150d4565b80156118ce5780601f106118a3576101008083540402835291602001916118ce565b820191906000526020600020905b8154815290600101906020018083116118b157829003601f168201915b505050505081526020019060010190611836565b50505050612a6c565b9050919050565b60606118fc613d14565b60405180610140016040528061010a81526020016152db61010a913981600060118110611952577f4e487b7100000000000000000000000000000000000000000000000000000000600052603260045260246000fd5b6020020181905250611963836124b0565b8160016011811061199d577f4e487b7100000000000000000000000000000000000000000000000000000000600052603260045260246000fd5b60200201819052506040518060600160405280602f81526020016154f9602f9139816002601181106119f8577f4e487b7100000000000000000000000000000000000000000000000000000000600052603260045260246000fd5b6020020181905250611a0983612778565b81600360118110611a43577f4e487b7100000000000000000000000000000000000000000000000000000000600052603260045260246000fd5b60200201819052506040518060600160405280603181526020016152aa6031913981600460118110611a9e577f4e487b7100000000000000000000000000000000000000000000000000000000600052603260045260246000fd5b6020020181905250611aaf83612396565b81600560118110611ae9577f4e487b7100000000000000000000000000000000000000000000000000000000600052603260045260246000fd5b60200201819052506040518060600160405280602d8152602001615528602d913981600660118110611b44577f4e487b7100000000000000000000000000000000000000000000000000000000600052603260045260246000fd5b6020020181905250611b55836117d8565b81600760118110611b8f577f4e487b7100000000000000000000000000000000000000000000000000000000600052603260045260246000fd5b60200201819052506040518060600160405280603581526020016154586035913981600860118110611bea577f4e487b7100000000000000000000000000000000000000000000000000000000600052603260045260246000fd5b6020020181905250611bfb836113c1565b81600960118110611c35577f4e487b7100000000000000000000000000000000000000000000000000000000600052603260045260246000fd5b60200201819052506040518060600160405280603381526020016154c66033913981600a60118110611c90577f4e487b7100000000000000000000000000000000000000000000000000000000600052603260045260246000fd5b6020020181905250611ca183610726565b81600b60118110611cdb577f4e487b7100000000000000000000000000000000000000000000000000000000600052603260045260246000fd5b602002018190525060405180606001604052806039815260200161548d6039913981600c60118110611d36577f4e487b7100000000000000000000000000000000000000000000000000000000600052603260045260246000fd5b6020020181905250611d4783610edb565b81600d60118110611d81577f4e487b7100000000000000000000000000000000000000000000000000000000600052603260045260246000fd5b60200201819052506040518060600160405280603381526020016154256033913981600e60118110611ddc577f4e487b7100000000000000000000000000000000000000000000000000000000600052603260045260246000fd5b6020020181905250611ded836116be565b81600f60118110611e27577f4e487b7100000000000000000000000000000000000000000000000000000000600052603260045260246000fd5b60200201819052506040518060400160405280600d81526020017f3c2f746578743e3c2f7376673e0000000000000000000000000000000000000081525081601060118110611e9f577f4e487b7100000000000000000000000000000000000000000000000000000000600052603260045260246000fd5b6020020181905250600081600060118110611ee3577f4e487b7100000000000000000000000000000000000000000000000000000000600052603260045260246000fd5b602002015182600160118110611f22577f4e487b7100000000000000000000000000000000000000000000000000000000600052603260045260246000fd5b602002015183600260118110611f61577f4e487b7100000000000000000000000000000000000000000000000000000000600052603260045260246000fd5b602002015184600360118110611fa0577f4e487b7100000000000000000000000000000000000000000000000000000000600052603260045260246000fd5b602002015185600460118110611fdf577f4e487b7100000000000000000000000000000000000000000000000000000000600052603260045260246000fd5b60200201518660056011811061201e577f4e487b7100000000000000000000000000000000000000000000000000000000600052603260045260246000fd5b60200201518760066011811061205d577f4e487b7100000000000000000000000000000000000000000000000000000000600052603260045260246000fd5b60200201518860076011811061209c577f4e487b7100000000000000000000000000000000000000000000000000000000600052603260045260246000fd5b6020020151896008601181106120db577f4e487b7100000000000000000000000000000000000000000000000000000000600052603260045260246000fd5b60200201516040516020016120f899989796959493929190614a05565b60405160208183030381529060405290508082600960118110612144577f4e487b7100000000000000000000000000000000000000000000000000000000600052603260045260246000fd5b602002015183600a60118110612183577f4e487b7100000000000000000000000000000000000000000000000000000000600052603260045260246000fd5b602002015184600b601181106121c2577f4e487b7100000000000000000000000000000000000000000000000000000000600052603260045260246000fd5b602002015185600c60118110612201577f4e487b7100000000000000000000000000000000000000000000000000000000600052603260045260246000fd5b602002015186600d60118110612240577f4e487b7100000000000000000000000000000000000000000000000000000000600052603260045260246000fd5b602002015187600e6011811061227f577f4e487b7100000000000000000000000000000000000000000000000000000000600052603260045260246000fd5b602002015188600f601181106122be577f4e487b7100000000000000000000000000000000000000000000000000000000600052603260045260246000fd5b6020020151896010601181106122fd577f4e487b7100000000000000000000000000000000000000000000000000000000600052603260045260246000fd5b602002015160405160200161231a99989796959493929190614a05565b60405160208183030381529060405290506000612367612339866130a8565b61234284613255565b604051602001612353929190614a84565b604051602081830303815290604052613255565b90508060405160200161237a9190614ac9565b6040516020818303038152906040529150819350505050919050565b60606124a9826040518060400160405280600381526020017f4541520000000000000000000000000000000000000000000000000000000000815250600f805480602002602001604051908101604052809291908181526020016000905b828210156124a0578382906000526020600020018054612413906150d4565b80601f016020809104026020016040519081016040528092919081815260200182805461243f906150d4565b801561248c5780601f106124615761010080835404028352916020019161248c565b820191906000526020600020905b81548152906001019060200180831161246f57829003601f168201915b5050505050815260200190600101906123f4565b50505050612a6c565b9050919050565b60606125c3826040518060400160405280600781526020017f43726561746f7200000000000000000000000000000000000000000000000000815250600c805480602002602001604051908101604052809291908181526020016000905b828210156125ba57838290600052602060002001805461252d906150d4565b80601f0160208091040260200160405190810160405280929190818152602001828054612559906150d4565b80156125a65780601f1061257b576101008083540402835291602001916125a6565b820191906000526020600020905b81548152906001019060200180831161258957829003601f168201915b50505050508152602001906001019061250e565b50505050612a6c565b9050919050565b60606126dd826040518060400160405280600a81526020017f4261636b67726f756e6400000000000000000000000000000000000000000000815250600d805480602002602001604051908101604052809291908181526020016000905b828210156126d4578382906000526020600020018054612647906150d4565b80601f0160208091040260200160405190810160405280929190818152602001828054612673906150d4565b80156126c05780601f10612695576101008083540402835291602001916126c0565b820191906000526020600020905b8154815290600101906020018083116126a357829003601f168201915b505050505081526020019060010190612628565b50505050612a6c565b9050919050565b6000600560008473ffffffffffffffffffffffffffffffffffffffff1673ffffffffffffffffffffffffffffffffffffffff16815260200190815260200160002060008373ffffffffffffffffffffffffffffffffffffffff1673ffffffffffffffffffffffffffffffffffffffff16815260200190815260200160002060009054906101000a900460ff16905092915050565b606061288b826040518060400160405280600681526020017f434c4f5448450000000000000000000000000000000000000000000000000000815250600e805480602002602001604051908101604052809291908181526020016000905b828210156128825783829060005260206000200180546127f5906150d4565b80601f0160208091040260200160405190810160405280929190818152602001828054612821906150d4565b801561286e5780601f106128435761010080835404028352916020019161286e565b820191906000526020600020905b81548152906001019060200180831161285157829003601f168201915b5050505050815260200190600101906127d6565b50505050612a6c565b9050919050565b61289a612b6d565b73ffffffffffffffffffffffffffffffffffffffff166128b8611305565b73ffffffffffffffffffffffffffffffffffffffff161461290e576040517f08c379a000000000000000000000000000000000000000000000000000000000815260040161290590614d31565b60405180910390fd5b600073ffffffffffffffffffffffffffffffffffffffff168173ffffffffffffffffffffffffffffffffffffffff16141561297e576040517f08c379a000000000000000000000000000000000000000000000000000000000815260040161297590614bf1565b60405180910390fd5b61298781612f86565b50565b60007f80ac58cd000000000000000000000000000000000000000000000000000000007bffffffffffffffffffffffffffffffffffffffffffffffffffffffff1916827bffffffffffffffffffffffffffffffffffffffffffffffffffffffff19161480612a5557507f5b5e139f000000000000000000000000000000000000000000000000000000007bffffffffffffffffffffffffffffffffffffffffffffffffffffffff1916827bffffffffffffffffffffffffffffffffffffffffffffffffffffffff1916145b80612a655750612a6482613413565b5b9050919050565b60606000612aa284612a7d876130a8565b604051602001612a8e9291906149e1565b60405160208183030381529060405261347d565b9050600083845183612ab4919061514f565b81518110612aeb577f4e487b7100000000000000000000000000000000000000000000000000000000600052603260045260246000fd5b6020026020010151905080925050509392505050565b60008073ffffffffffffffffffffffffffffffffffffffff166002600084815260200190815260200160002060009054906101000a900473ffffffffffffffffffffffffffffffffffffffff1673ffffffffffffffffffffffffffffffffffffffff1614159050919050565b600033905090565b816004600083815260200190815260200160002060006101000a81548173ffffffffffffffffffffffffffffffffffffffff021916908373ffffffffffffffffffffffffffffffffffffffff160217905550808273ffffffffffffffffffffffffffffffffffffffff16612be883610e29565b73ffffffffffffffffffffffffffffffffffffffff167f8c5be1e5ebec7d5bd14f71427d1e84f3dd0314c0f7b2291e5b200ac8c7c3b92560405160405180910390a45050565b6000612c3982612b01565b612c78576040517f08c379a0000000000000000000000000000000000000000000000000000000008152600401612c6f90614c71565b60405180910390fd5b6000612c8383610e29565b90508073ffffffffffffffffffffffffffffffffffffffff168473ffffffffffffffffffffffffffffffffffffffff161480612cf257508373ffffffffffffffffffffffffffffffffffffffff16612cda846108d2565b73ffffffffffffffffffffffffffffffffffffffff16145b80612d035750612d0281856126e4565b5b91505092915050565b8273ffffffffffffffffffffffffffffffffffffffff16612d2c82610e29565b73ffffffffffffffffffffffffffffffffffffffff1614612d82576040517f08c379a0000000000000000000000000000000000000000000000000000000008152600401612d7990614d71565b60405180910390fd5b600073ffffffffffffffffffffffffffffffffffffffff168273ffffffffffffffffffffffffffffffffffffffff161415612df2576040517f08c379a0000000000000000000000000000000000000000000000000000000008152600401612de990614c31565b60405180910390fd5b612dfd8383836134b0565b612e08600082612b75565b6001600360008573ffffffffffffffffffffffffffffffffffffffff1673ffffffffffffffffffffffffffffffffffffffff1681526020019081526020016000206000828254612e589190614fea565b925050819055506001600360008473ffffffffffffffffffffffffffffffffffffffff1673ffffffffffffffffffffffffffffffffffffffff1681526020019081526020016000206000828254612eaf9190614f09565b92505081905550816002600083815260200190815260200160002060006101000a81548173ffffffffffffffffffffffffffffffffffffffff021916908373ffffffffffffffffffffffffffffffffffffffff160217905550808273ffffffffffffffffffffffffffffffffffffffff168473ffffffffffffffffffffffffffffffffffffffff167fddf252ad1be2c89b69c2b068fc378daa952ba7f163c4a11628f55a4df523b3ef60405160405180910390a4505050565b612f828282604051806020016040528060008152506135c4565b5050565b6000600b60009054906101000a900473ffffffffffffffffffffffffffffffffffffffff16905081600b60006101000a81548173ffffffffffffffffffffffffffffffffffffffff021916908373ffffffffffffffffffffffffffffffffffffffff1602179055508173ffffffffffffffffffffffffffffffffffffffff168173ffffffffffffffffffffffffffffffffffffffff167f8be0079c531659141344cd1fd0a4f28419497f9722a3daafe3b4186f6b6457e060405160405180910390a35050565b613057848484612d0c565b6130638484848461361f565b6130a2576040517f08c379a000000000000000000000000000000000000000000000000000000000815260040161309990614bd1565b60405180910390fd5b50505050565b606060008214156130f0576040518060400160405280600181526020017f30000000000000000000000000000000000000000000000000000000000000008152509050613250565b600082905060005b6000821461312257808061310b90615106565b915050600a8261311b9190614f5f565b91506130f8565b60008167ffffffffffffffff811115613164577f4e487b7100000000000000000000000000000000000000000000000000000000600052604160045260246000fd5b6040519080825280601f01601f1916602001820160405280156131965781602001600182028036833780820191505090505b5090505b60008514613249576001826131af9190614fea565b9150600a856131be919061514f565b60306131ca9190614f09565b60f81b818381518110613206577f4e487b7100000000000000000000000000000000000000000000000000000000600052603260045260246000fd5b60200101907effffffffffffffffffffffffffffffffffffffffffffffffffffffffffffff1916908160001a905350600a856132429190614f5f565b945061319a565b8093505050505b919050565b6060600082519050600081141561327e576040518060200160405280600081525091505061340e565b6000600360028361328f9190614f09565b6132999190614f5f565b60046132a59190614f90565b905060006020826132b69190614f09565b67ffffffffffffffff8111156132f5577f4e487b7100000000000000000000000000000000000000000000000000000000600052604160045260246000fd5b6040519080825280601f01601f1916602001820160405280156133275781602001600182028036833780820191505090505b50905060006040518060600160405280604081526020016153e5604091399050600181016020830160005b868110156133cb5760038101905062ffffff818a015116603f8160121c168401518060081b905060ff603f83600c1c1686015116810190508060081b905060ff603f8360061c1686015116810190508060081b905060ff603f831686015116810190508060e01b90508084526004840193505050613352565b5060038606600181146133e557600281146133f557613400565b613d3d60f01b6002830352613400565b603d60f81b60018303525b508484525050819450505050505b919050565b60007f01ffc9a7000000000000000000000000000000000000000000000000000000007bffffffffffffffffffffffffffffffffffffffffffffffffffffffff1916827bffffffffffffffffffffffffffffffffffffffffffffffffffffffff1916149050919050565b60008160405160200161349091906149ca565b6040516020818303038152906040528051906020012060001c9050919050565b6134bb8383836137b6565b600073ffffffffffffffffffffffffffffffffffffffff168373ffffffffffffffffffffffffffffffffffffffff1614156134fe576134f9816137bb565b61353d565b8173ffffffffffffffffffffffffffffffffffffffff168373ffffffffffffffffffffffffffffffffffffffff161461353c5761353b8382613804565b5b5b600073ffffffffffffffffffffffffffffffffffffffff168273ffffffffffffffffffffffffffffffffffffffff1614156135805761357b81613971565b6135bf565b8273ffffffffffffffffffffffffffffffffffffffff168273ffffffffffffffffffffffffffffffffffffffff16146135be576135bd8282613ab4565b5b5b505050565b6135ce8383613b33565b6135db600084848461361f565b61361a576040517f08c379a000000000000000000000000000000000000000000000000000000000815260040161361190614bd1565b60405180910390fd5b505050565b60006136408473ffffffffffffffffffffffffffffffffffffffff16613d01565b156137a9578373ffffffffffffffffffffffffffffffffffffffff1663150b7a02613669612b6d565b8786866040518563ffffffff1660e01b815260040161368b9493929190614b06565b602060405180830381600087803b1580156136a557600080fd5b505af19250505080156136d657506040513d601f19601f820116820180604052508101906136d39190613fdd565b60015b613759573d8060008114613706576040519150601f19603f3d011682016040523d82523d6000602084013e61370b565b606091505b50600081511415613751576040517f08c379a000000000000000000000000000000000000000000000000000000000815260040161374890614bd1565b60405180910390fd5b805181602001fd5b63150b7a0260e01b7bffffffffffffffffffffffffffffffffffffffffffffffffffffffff1916817bffffffffffffffffffffffffffffffffffffffffffffffffffffffff1916149150506137ae565b600190505b949350505050565b505050565b6008805490506009600083815260200190815260200160002081905550600881908060018154018082558091505060019003906000526020600020016000909190919091505550565b6000600161381184610ff5565b61381b9190614fea565b9050600060076000848152602001908152602001600020549050818114613900576000600660008673ffffffffffffffffffffffffffffffffffffffff1673ffffffffffffffffffffffffffffffffffffffff168152602001908152602001600020600084815260200190815260200160002054905080600660008773ffffffffffffffffffffffffffffffffffffffff1673ffffffffffffffffffffffffffffffffffffffff168152602001908152602001600020600084815260200190815260200160002081905550816007600083815260200190815260200160002081905550505b6007600084815260200190815260200160002060009055600660008573ffffffffffffffffffffffffffffffffffffffff1673ffffffffffffffffffffffffffffffffffffffff16815260200190815260200160002060008381526020019081526020016000206000905550505050565b600060016008805490506139859190614fea565b90506000600960008481526020019081526020016000205490506000600883815481106139db577f4e487b7100000000000000000000000000000000000000000000000000000000600052603260045260246000fd5b906000526020600020015490508060088381548110613a23577f4e487b7100000000000000000000000000000000000000000000000000000000600052603260045260246000fd5b906000526020600020018190555081600960008381526020019081526020016000208190555060096000858152602001908152602001600020600090556008805480613a98577f4e487b7100000000000000000000000000000000000000000000000000000000600052603160045260246000fd5b6001900381819060005260206000200160009055905550505050565b6000613abf83610ff5565b905081600660008573ffffffffffffffffffffffffffffffffffffffff1673ffffffffffffffffffffffffffffffffffffffff168152602001908152602001600020600083815260200190815260200160002081905550806007600084815260200190815260200160002081905550505050565b600073ffffffffffffffffffffffffffffffffffffffff168273ffffffffffffffffffffffffffffffffffffffff161415613ba3576040517f08c379a0000000000000000000000000000000000000000000000000000000008152600401613b9a90614cf1565b60405180910390fd5b613bac81612b01565b15613bec576040517f08c379a0000000000000000000000000000000000000000000000000000000008152600401613be390614c11565b60405180910390fd5b613bf8600083836134b0565b6001600360008473ffffffffffffffffffffffffffffffffffffffff1673ffffffffffffffffffffffffffffffffffffffff1681526020019081526020016000206000828254613c489190614f09565b92505081905550816002600083815260200190815260200160002060006101000a81548173ffffffffffffffffffffffffffffffffffffffff021916908373ffffffffffffffffffffffffffffffffffffffff160217905550808273ffffffffffffffffffffffffffffffffffffffff16600073ffffffffffffffffffffffffffffffffffffffff167fddf252ad1be2c89b69c2b068fc378daa952ba7f163c4a11628f55a4df523b3ef60405160405180910390a45050565b600080823b905060008111915050919050565b6040518061022001604052806011905b6060815260200190600190039081613d245790505090565b6000613d4f613d4a84614e5d565b614e2c565b905082815260208101848484011115613d6757600080fd5b613d72848285615092565b509392505050565b600081359050613d898161524d565b92915050565b600081359050613d9e81615264565b92915050565b600081359050613db38161527b565b92915050565b600081519050613dc88161527b565b92915050565b600082601f830112613ddf57600080fd5b8135613def848260208601613d3c565b91505092915050565b600081359050613e0781615292565b92915050565b600060208284031215613e1f57600080fd5b6000613e2d84828501613d7a565b91505092915050565b60008060408385031215613e4957600080fd5b6000613e5785828601613d7a565b9250506020613e6885828601613d7a565b9150509250929050565b600080600060608486031215613e8757600080fd5b6000613e9586828701613d7a565b9350506020613ea686828701613d7a565b9250506040613eb786828701613df8565b9150509250925092565b60008060008060808587031215613ed757600080fd5b6000613ee587828801613d7a565b9450506020613ef687828801613d7a565b9350506040613f0787828801613df8565b925050606085013567ffffffffffffffff811115613f2457600080fd5b613f3087828801613dce565b91505092959194509250565b60008060408385031215613f4f57600080fd5b6000613f5d85828601613d7a565b9250506020613f6e85828601613d8f565b9150509250929050565b60008060408385031215613f8b57600080fd5b6000613f9985828601613d7a565b9250506020613faa85828601613df8565b9150509250929050565b600060208284031215613fc657600080fd5b6000613fd484828501613da4565b91505092915050565b600060208284031215613fef57600080fd5b6000613ffd84828501613db9565b91505092915050565b60006020828403121561401857600080fd5b600061402684828501613df8565b91505092915050565b600061403b83836149ac565b60208301905092915050565b6140508161501e565b82525050565b600061406182614e9d565b61406b8185614ecb565b935061407683614e8d565b8060005b838110156140a757815161408e888261402f565b975061409983614ebe565b92505060018101905061407a565b5085935050505092915050565b6140bd81615030565b82525050565b60006140ce82614ea8565b6140d88185614edc565b93506140e88185602086016150a1565b6140f18161523c565b840191505092915050565b600061410782614eb3565b6141118185614eed565b93506141218185602086016150a1565b61412a8161523c565b840191505092915050565b600061414082614eb3565b61414a8185614efe565b935061415a8185602086016150a1565b80840191505092915050565b6000614173602b83614eed565b91507f455243373231456e756d657261626c653a206f776e657220696e646578206f7560008301527f74206f6620626f756e64730000000000000000000000000000000000000000006020830152604082019050919050565b60006141d9603283614eed565b91507f4552433732313a207472616e7366657220746f206e6f6e20455243373231526560008301527f63656976657220696d706c656d656e74657200000000000000000000000000006020830152604082019050919050565b600061423f602683614eed565b91507f4f776e61626c653a206e6577206f776e657220697320746865207a65726f206160008301527f64647265737300000000000000000000000000000000000000000000000000006020830152604082019050919050565b60006142a5601c83614eed565b91507f4552433732313a20746f6b656e20616c7265616479206d696e746564000000006000830152602082019050919050565b60006142e5602483614eed565b91507f4552433732313a207472616e7366657220746f20746865207a65726f2061646460008301527f72657373000000000000000000000000000000000000000000000000000000006020830152604082019050919050565b600061434b601983614eed565b91507f4552433732313a20617070726f766520746f2063616c6c6572000000000000006000830152602082019050919050565b600061438b602c83614eed565b91507f4552433732313a206f70657261746f7220717565727920666f72206e6f6e657860008301527f697374656e7420746f6b656e00000000000000000000000000000000000000006020830152604082019050919050565b60006143f1603883614eed565b91507f4552433732313a20617070726f76652063616c6c6572206973206e6f74206f7760008301527f6e6572206e6f7220617070726f76656420666f7220616c6c00000000000000006020830152604082019050919050565b6000614457602a83614eed565b91507f4552433732313a2062616c616e636520717565727920666f7220746865207a6560008301527f726f2061646472657373000000000000000000000000000000000000000000006020830152604082019050919050565b60006144bd602983614eed565b91507f4552433732313a206f776e657220717565727920666f72206e6f6e657869737460008301527f656e7420746f6b656e00000000000000000000000000000000000000000000006020830152604082019050919050565b6000614523600283614efe565b91507f227d0000000000000000000000000000000000000000000000000000000000006000830152600282019050919050565b6000614563602083614eed565b91507f4552433732313a206d696e7420746f20746865207a65726f20616464726573736000830152602082019050919050565b60006145a3602c83614eed565b91507f4552433732313a20617070726f76656420717565727920666f72206e6f6e657860008301527f697374656e7420746f6b656e00000000000000000000000000000000000000006020830152604082019050919050565b6000614609602083614eed565b91507f4f776e61626c653a2063616c6c6572206973206e6f7420746865206f776e65726000830152602082019050919050565b6000614649608283614efe565b91507f222c20226465736372697074696f6e223a20224265617574792076657273652060008301527f69732061766174617220637265617465642062792063656c656272697479206160208301527f72746973747320616e642073746f726564206f6e20636861696e2e222c20226960408301527f6d616765223a2022646174613a696d6167652f7376672b786d6c3b626173653660608301527f342c0000000000000000000000000000000000000000000000000000000000006080830152608282019050919050565b6000614721601083614eed565b91507f546f6b656e20494420696e76616c6964000000000000000000000000000000006000830152602082019050919050565b6000614761602983614eed565b91507f4552433732313a207472616e73666572206f6620746f6b656e2074686174206960008301527f73206e6f74206f776e00000000000000000000000000000000000000000000006020830152604082019050919050565b60006147c7601283614efe565b91507f7b226e616d65223a2022417661746172202300000000000000000000000000006000830152601282019050919050565b6000614807602183614eed565b91507f4552433732313a20617070726f76616c20746f2063757272656e74206f776e6560008301527f72000000000000000000000000000000000000000000000000000000000000006020830152604082019050919050565b600061486d601d83614efe565b91507f646174613a6170706c69636174696f6e2f6a736f6e3b6261736536342c0000006000830152601d82019050919050565b60006148ad603183614eed565b91507f4552433732313a207472616e736665722063616c6c6572206973206e6f74206f60008301527f776e6572206e6f7220617070726f7665640000000000000000000000000000006020830152604082019050919050565b6000614913602c83614eed565b91507f455243373231456e756d657261626c653a20676c6f62616c20696e646578206f60008301527f7574206f6620626f756e647300000000000000000000000000000000000000006020830152604082019050919050565b6000614979601f83614eed565b91507f5265656e7472616e637947756172643a207265656e7472616e742063616c6c006000830152602082019050919050565b6149b581615088565b82525050565b6149c481615088565b82525050565b60006149d68284614135565b915081905092915050565b60006149ed8285614135565b91506149f98284614135565b91508190509392505050565b6000614a11828c614135565b9150614a1d828b614135565b9150614a29828a614135565b9150614a358289614135565b9150614a418288614135565b9150614a4d8287614135565b9150614a598286614135565b9150614a658285614135565b9150614a718284614135565b91508190509a9950505050505050505050565b6000614a8f826147ba565b9150614a9b8285614135565b9150614aa68261463c565b9150614ab28284614135565b9150614abd82614516565b91508190509392505050565b6000614ad482614860565b9150614ae08284614135565b915081905092915050565b6000602082019050614b006000830184614047565b92915050565b6000608082019050614b1b6000830187614047565b614b286020830186614047565b614b3560408301856149bb565b8181036060830152614b4781846140c3565b905095945050505050565b60006020820190508181036000830152614b6c8184614056565b905092915050565b6000602082019050614b8960008301846140b4565b92915050565b60006020820190508181036000830152614ba981846140fc565b905092915050565b60006020820190508181036000830152614bca81614166565b9050919050565b60006020820190508181036000830152614bea816141cc565b9050919050565b60006020820190508181036000830152614c0a81614232565b9050919050565b60006020820190508181036000830152614c2a81614298565b9050919050565b60006020820190508181036000830152614c4a816142d8565b9050919050565b60006020820190508181036000830152614c6a8161433e565b9050919050565b60006020820190508181036000830152614c8a8161437e565b9050919050565b60006020820190508181036000830152614caa816143e4565b9050919050565b60006020820190508181036000830152614cca8161444a565b9050919050565b60006020820190508181036000830152614cea816144b0565b9050919050565b60006020820190508181036000830152614d0a81614556565b9050919050565b60006020820190508181036000830152614d2a81614596565b9050919050565b60006020820190508181036000830152614d4a816145fc565b9050919050565b60006020820190508181036000830152614d6a81614714565b9050919050565b60006020820190508181036000830152614d8a81614754565b9050919050565b60006020820190508181036000830152614daa816147fa565b9050919050565b60006020820190508181036000830152614dca816148a0565b9050919050565b60006020820190508181036000830152614dea81614906565b9050919050565b60006020820190508181036000830152614e0a8161496c565b9050919050565b6000602082019050614e2660008301846149bb565b92915050565b6000604051905081810181811067ffffffffffffffff82111715614e5357614e5261520d565b5b8060405250919050565b600067ffffffffffffffff821115614e7857614e7761520d565b5b601f19601f8301169050602081019050919050565b6000819050602082019050919050565b600081519050919050565b600081519050919050565b600081519050919050565b6000602082019050919050565b600082825260208201905092915050565b600082825260208201905092915050565b600082825260208201905092915050565b600081905092915050565b6000614f1482615088565b9150614f1f83615088565b9250827fffffffffffffffffffffffffffffffffffffffffffffffffffffffffffffffff03821115614f5457614f53615180565b5b828201905092915050565b6000614f6a82615088565b9150614f7583615088565b925082614f8557614f846151af565b5b828204905092915050565b6000614f9b82615088565b9150614fa683615088565b9250817fffffffffffffffffffffffffffffffffffffffffffffffffffffffffffffffff0483118215151615614fdf57614fde615180565b5b828202905092915050565b6000614ff582615088565b915061500083615088565b92508282101561501357615012615180565b5b828203905092915050565b600061502982615068565b9050919050565b60008115159050919050565b60007fffffffff0000000000000000000000000000000000000000000000000000000082169050919050565b600073ffffffffffffffffffffffffffffffffffffffff82169050919050565b6000819050919050565b82818337600083830152505050565b60005b838110156150bf5780820151818401526020810190506150a4565b838111156150ce576000848401525b50505050565b600060028204905060018216806150ec57607f821691505b60208210811415615100576150ff6151de565b5b50919050565b600061511182615088565b91507fffffffffffffffffffffffffffffffffffffffffffffffffffffffffffffffff82141561514457615143615180565b5b600182019050919050565b600061515a82615088565b915061516583615088565b925082615175576151746151af565b5b828206905092915050565b7f4e487b7100000000000000000000000000000000000000000000000000000000600052601160045260246000fd5b7f4e487b7100000000000000000000000000000000000000000000000000000000600052601260045260246000fd5b7f4e487b7100000000000000000000000000000000000000000000000000000000600052602260045260246000fd5b7f4e487b7100000000000000000000000000000000000000000000000000000000600052604160045260246000fd5b6000601f19601f8301169050919050565b6152568161501e565b811461526157600080fd5b50565b61526d81615030565b811461527857600080fd5b50565b6152848161503c565b811461528f57600080fd5b50565b61529b81615088565b81146152a657600080fd5b5056fe3c2f746578743e3c7465787420783d2231302220793d2236302220636c6173733d2262617365223e4561722072696e673a3c73766720786d6c6e733d22687474703a2f2f7777772e77332e6f72672f323030302f73766722207072657365727665417370656374526174696f3d22784d696e594d696e206d656574222076696577426f783d223020302033353020333530223e3c7374796c653e2e62617365207b2066696c6c3a20626c61636b3b20666f6e742d66616d696c793a2073657269663b20666f6e742d73697a653a20313470783b207d3c2f7374796c653e3c726563742077696474683d223130302522206865696768743d2231303025222066696c6c3d226c6967687470696e6b22202f3e3c7465787420783d2231302220793d2232302220636c6173733d2262617365223e43726561746f723a204142434445464748494a4b4c4d4e4f505152535455565758595a6162636465666768696a6b6c6d6e6f707172737475767778797a303132333435363738392b2f3c2f746578743e3c7465787420783d2231302220793d223136302220636c6173733d2262617365223e536b696e20546f6e653a3c2f746578743e3c7465787420783d2231302220793d223130302220636c6173733d2262617365223e48616972205374796c653a203c2f746578743e3c7465787420783d2231302220793d223134302220636c6173733d2262617365223e4e65636b204163636573736f72793a203c2f746578743e3c7465787420783d2231302220793d223132302220636c6173733d2262617365223e4c6970737469636b3a203c2f746578743e3c7465787420783d2231302220793d2234302220636c6173733d2262617365223e436c6f74683a203c2f746578743e3c7465787420783d2231302220793d2238302220636c6173733d2262617365223e4579653a20a26469706673582212203596df46d9e066213e4103dac4874985f8ab77c8c95c266ce3f21614fa97438564736f6c63430008000033",
  "linkReferences": {},
  "deployedLinkReferences": {}
}